:020000040000FA
:0600000099EF16F012005A
:0600080004EF08F01200F5
:060018000CEF08F01200DD
:0610000099EF16F012004A
:021006001200D6
:06100800B9EF13F0120025
:02100E000000E0
:0110100000DF
:06101800C0EF13F012000E
:02101E000100CF
:0C1020000E1000007F0100000300000023
:04102C00D9CFE6FF33
:10103000E1CFD9FFE652A0940F015F6B626A536B58
:10104000020EE66EE66AE66A540EE66E0F0EE66E75
:101050006FEC16F0106E050EE15E1050160E616E0C
:101060000F019F0E5B6F7B0E606EDF6ADF50106EAC
:10107000116A0C0E105C000E115810E2DF50040DC6
:10108000F3CFE9FFF4CFEAFF000EE926020EEA22D1
:10109000EE6AEE6AEE6AEE6ADF2AE8D7648C0F0128
:1010A0005C6B6498649C62A607D062960101586BE1
:1010B0005D6B5E6B5F6BF7D70101010E716F726F35
:1010C000736B746B656BDF6A030EDF5C26E2EA6AA2
:1010D000DF34FE0BEA36E96E4E0EE926010EEA22F7
:1010E000EE6AED6AEA6ADF34FE0BEA36E96E480E14
:1010F000E926010EEA22EE6AED6ADF50EA6A690F1C
:10110000E96E010EEA22EF6ADF50EA6A6C0FE96EBF
:10111000010EEA22EF6ADF2AD7D70101080E4E6FCF
:10112000020E4F6F0F01160E536F0201300E026F49
:10113000020E036F080E016F840E006F0101416BF8
:10114000406BE552E552E7CFD9FF1200D9CFE6FF59
:10115000E1CFD9FFE6520101405110E1646A606AB3
:10116000160E616E0F019F0E5B6F7B0E606E64B694
:1011700002D06486FCD70101010E406F400508E1F2
:1011800064BA06D0626A606A60806088020E406F4E
:101190006250040B06E06050040B03E062948FEC95
:1011A0000EF064B259D06250010B08E06050010BA0
:1011B00005E03CDF0101040E406F62906250100BAD
:1011C00006E06050100B03E07AEC0EF0629862AC1F
:1011D00019D060AC0FD0010EE66EE66A000EE66E26
:1011E000E66A730EE66EE66A4DEC15F0106E060EBA
:1011F000E15E1050629C01016F5101E06F076F5179
:1012000001E1E0D96250200B05E06050200B02E0C4
:1012100060EC0EF06250020B14E06050020B11E023
:10122000010EE66EE66A000EE66EE66AE6687F0E7E
:10123000E66E4DEC15F0106E060EE15E10500F01DB
:101240005F6B040E0101E76E4019E8AE02D0E7348F
:1012500002D0E750405D02E2A19439D060A636D0BA
:10126000DF6A040EDF5C32E262A630D063CF66F143
:1012700001016651780BE842E842E842676F6296E6
:1012800066B506D06751EA6A6C0FE96E010E05D0AB
:101290006751EA6A690FE96E010EEA22EF70675141
:1012A00003E1A6EC0EF010D0000EE66EE66A660EC4
:1012B000E66E010EE66E720EE66EE66A4DEC15F015
:1012C000106E060EE15E1050DF2ACBD7A194E552D6
:1012D000E552E7CFD9FF1200D9CFE6FFE1CFD9FF22
:1012E000020EE126FD0EDBA407D0E66AFE0EDBCF80
:1012F000E6FFF7D9E552E552FD0EDBA208D0010E5C
:10130000E66EFE0EDBCFE6FFECD9E552E552FE0EAF
:10131000DB50116A530F106E0F0E112210C0DEFF4A
:1013200011C0DDFFDECFE9FFDDCFEAFFFD0EDBCF31
:10133000EFFF020EE15C02E2E16AE552E16EE55286
:10134000E7CFD9FF1200D9CFE6FFE1CFD9FF020ED8
:10135000E126FD0EDB500AE0FE0EEA6ADB34FE0BEE
:10136000EA36E96E4E0EE926010E09D0FE0EEA6A53
:10137000DB34FE0BEA36E96E480EE926010EEA225E
:10138000EECFDEFFEDCFDDFFD9CFE9FFDACFEAFF09
:10139000EE50ED1003E1F36AF46A44D0DECFE9FFCA
:1013A000DDCFEAFF020EE926000EEA22FB0EDBCFBC
:1013B000EEFFFC0EDBCFEDFFDECFE9FFDDCFEAFF76
:1013C000EE52FA0EDBCFEFFF400EDECFE9FFDDCFAE
:1013D000EAFFE850EF16880EDECFE9FFDDCFEAFF27
:1013E000E850EF12FD0EDB500AE0FE0EEA6ADB3435
:1013F000FE0BEA36E96E4E0EE926010E09D0FE0E0E
:10140000EA6ADB34FE0BEA36E96E480EE926010E85
:10141000EA22EF74DECF10F0DDCF11F010C0F3FF41
:1014200011C0F4FF020EE15C02E2E16AE552E16EF6
:10143000E552E7CFD9FF1200D9CFE6FFE1CFD9FFC0
:10144000020EE126FE0EDB5020E146C1E9FF47C156
:10145000EAFFEE52080EEF6E46C1E9FF47C1EAFF10
:10146000020EE926000EEA22300EEE6E020EED6E3E
:1014700046C1E9FF47C1EAFF8C0EEF6E4EC1E9FF9E
:101480004FC1EAFF840EEF6E3BD0FD0EDB50E82427
:10149000126EFE0EDB50040DF3501224040DF3CF38
:1014A00010F0F4CF11F0000E1026020E112210C021
:1014B000DEFF11C0DDFF840EDECFE9FFDDCFEAFFE6
:1014C000E850EF12FD0EDB50E824126EFE0EDB50EA
:1014D000040DF3501224010F040DF3CF10F0F4CFDC
:1014E00011F0000E1026020E112210C0DEFF11C0F6
:1014F000DDFF840EDECFE9FFDDCFEAFFE850EF121B
:10150000020EE15C02E2E16AE552E16EE552E7CFEC
:10151000D9FF1200D9CFE6FFE1CFD9FF64A84ED0A2
:10152000FE0EEA6ADB34FE0BEA36E96E4E0EE92661
:10153000010EEA22EE50EFCFEAFFE96E400EEE1602
:10154000EE6AEE6AEE6AFE0EEA6ADB34FE0BEA36FB
:10155000E96E4E0EE926010EEA22EE50EFCFEAFFC9
:10156000E96EEE7CFE0EEA6ADB34FE0BEA36E96ECB
:101570004E0EE926010EEA22EF74400E106EFE0EAA
:10158000EA6ADB34FE0BEA36E96E4E0EE926010EFE
:10159000EA22EE50EFCFEAFFE96E1050EF16FE0E92
:1015A000EA6ADB34FE0BEA36E96E4E0EE926010EDE
:1015B000EA22EE50EFCFEAFFE96EEF7CE552E7CF8B
:1015C000D9FF1200010171514DE1010E716F72518D
:1015D00049E1010E726F020E555D0DE14EC1E9FF4A
:1015E0004FC1EAFFEE52EF6A4EC1E9FF4FC1EAFF79
:1015F000C80EEF6E1200550535E1686B44C1E9FF76
:1016000045C1EAFFEE52080EEF6E44C1E9FF45C145
:10161000EAFF020EE926000EEA22300EEE6E020EFE
:10162000ED6E44C1E9FF45C1EAFF840EEF6E010E85
:10163000686F46C1E9FF47C1EAFFEE52080EEF6E40
:1016400046C1E9FF47C1EAFF020EE926000EEA2281
:10165000300EEE6E020EED6E46C1E9FF47C1EAFFA5
:10166000800EEF6E12000101736B746B020E555DFC
:1016700018E146C1E9FF47C1EAFFEE52080EEF6EDE
:1016800046C1E9FF47C1EAFF020EE926000EEA2241
:10169000380EEE6E020EED6E46C1E9FF47C1EAFF5D
:1016A0001DD059510201365D01015A5102013759CD
:1016B00004E236C259F137C25AF1CAD84EC1E9FF25
:1016C0004FC1EAFF020EE926000EEA22380EEE6E46
:1016D000020EED6E4EC1E9FF4FC1EAFFC80EEF6E7C
:1016E0001200D9CFE6FFE1CFD9FF020EE126000EAE
:1016F000DE6E020EDD6EFD0EDB50E824126EFE0E75
:10170000DB50040DF3501224040DF4CF11F0D9CFA7
:10171000E9FFDACFEAFFF350EE261150ED22DECFDB
:10172000E9FFDDCFEAFFEF9EFD0EDB500AE1FE0E82
:10173000EA6ADB34FE0BEA36E96E480EE926010E52
:1017400009D0FE0EEA6ADB34FE0BEA36E96E4E0E75
:10175000E926010EEA22DECFEEFFDDCFEDFFDECF80
:10176000E9FFDDCFEAFFEF9CDECFE9FFDDCFEAFF47
:10177000040EE926000EEA22EF8C020EE15C02E282
:10178000E16AE552E16EE552E7CFD9FF12006498B5
:10179000010158BF2BD05DAF09D0020E556F7451B7
:1017A00001E161DF0101726B716B120046C1E9FF5B
:1017B00047C1EAFFEE52080EEF6E46C1E9FF47C18E
:1017C000EAFF020EE926000EEA22300EEE6E020E4D
:1017D000ED6E46C1E9FF47C1EAFF8C0EEF6E4EC1C8
:1017E000E9FF4FC1EAFF840EEF6E1200020130AF35
:1017F0000DD00101010E556F735101E134DF01017C
:10180000726B716B705123E1E2EF0AF00101020E7D
:10181000556F46C1E9FF47C1EAFFEE52080EEF6E71
:1018200046C1E9FF47C1EAFF020EE926000EEA229F
:10183000300EEE6E020EED6E46C1E9FF47C1EAFFC3
:10184000840EEF6E726B716B705101E1BBDE1200A2
:10185000D9CFE6FFE1CFD9FFE652080EDF6E0101D6
:10186000595D000E5A590AE259C1DFFF545102E195
:10187000010E03D0540502E1020E546FDF50116ACD
:10188000E850595D596F11505A595A6F4EC1E9FFCE
:101890004FC1EAFFEE52DFCFEFFF380E626F020E4C
:1018A000636F58B118D0DF502DE056C1F6FF57C115
:1018B000F7FF562B000E57230800F550E66E62C165
:1018C000E9FF63C1EAFF622B000E6323E552E75094
:1018D000EF6EDF06E8D7DF5015E056C1E9FF57C1CC
:1018E000EAFF562B000E5723EF50E66E62C1E9FF68
:1018F00063C1EAFF622B000E6323E552E750EF6EEF
:10190000DF06E9D7E552E552E7CFD9FF1200D9CF7C
:10191000E6FFE1CFD9FF020EE12644C1E9FF45C150
:10192000EAFFEE52EFCFDFFFDFCF10F010500101E2
:101930005E5D000E5F5902E25EC1DFFFDF50106E98
:10194000116AE8505E5D5E6F11505F595F6F010E66
:10195000DB6ADF50F36E010EDBCFF4FFF350F45C73
:1019600016E2010EDB50EA6A380FE96E020EEA2237
:10197000EF50E66E5BC1E9FF5CC1EAFF5B2B000E36
:101980005C23E552E750EF6E010EDB2AE2D7000E32
:10199000D8805E55000E5F5527E246C1E9FF47C17A
:1019A000EAFFEE52080EEF6E46C1E9FF47C1EAFFBB
:1019B000020EE926000EEA22380EEE6E020EED6EE1
:1019C00044C1E9FF45C1EAFFEF50400B06E146C1C3
:1019D000E9FF47C1EAFFC80E05D046C1E9FF47C18C
:1019E000EAFF880EEF6E28D046C1E9FF47C1EAFF43
:1019F000EE52080EEF6E46C1E9FF47C1EAFF020E44
:101A0000E926000EEA22300EEE6E020EED6E46C1A1
:101A1000E9FF47C1EAFF840EEF6E6051611107E0F4
:101A200005D061C1FAFF01016051F96EFADF0101D1
:101A30005D9F705101E1C6DD020EE15C02E2E16AE8
:101A4000E552E16EE552E7CFD9FF1200D9CFE6FFAC
:101A5000E1CFD9FFE6520101588F020EE66EE66A29
:101A6000E66A540EE66E0F0EE66E6FEC16F0106E20
:101A7000050EE15E1050DF6ADF50106E116A0C0E29
:101A8000105C000E115810E2DF50040DF3CFE9FF97
:101A9000F4CFEAFF000EE926020EEA22EE6AEE6AB1
:101AA000EE6AEE6ADF2AE8D7648CDF6A030EDF5C39
:101AB00010E2DF50EA6A690FE96E010EEA22EF6A6E
:101AC000DF50EA6A6C0FE96E010EEA22EF6ADF2A44
:101AD000EDD7020EE66EE66AE66A420EE66E010E8B
:101AE000E66E6FEC16F0106E050EE15E1050649C11
:101AF0000101080E4E6F020E4F6F000E446F020E72
:101B0000456F44C146F1476F32C241F1415102E194
:101B1000100E12D0010EE66EE66A410EE66E010E60
:101B2000E66E010EE66EE66A4DEC15F0106E060EDE
:101B3000E15E10500101200E406FE552E552E7CF03
:101B4000D9FF1200800E0201305D58E10101C00E84
:101B5000586F02013351030A2FE0010A09E0030A1A
:101B60004BE101012E0E566F2B0E576F120E3ED019
:101B70003251F66EF76AD890F636F736EF0EF62643
:101B80002B0EF7220900F5CF56F10A00F5CF57F1D9
:101B9000020E0101F76A5625F66E5751F72208002A
:101BA000F5CF59F1030EF76A5625F66E5751F72215
:101BB0000800F5CF5AF11200030E325D1AE23251DD
:101BC000F66EF76AD890F636F736F10EF6262B0E3B
:101BD000F7220900F5CF56F10A00F5CF57F156C1AB
:101BE000F6FF57C1F7FF0800F5500101596F5A6B16
:101BF00012000101586B12000101586B1200D9CF7D
:101C0000E6FFE1CFD9FF020EE1260201386B396B06
:101C100030511F0B020A11E0030A0CE0010A3CE1FB
:101C20000101588F020138810101640535E102018B
:101C3000388332D00101588F2FD00101588F020113
:101C400034BF0BD034510F0BE96EEA6AD890E936F5
:101C5000EA36480EE926010E0AD034510F0BE96E20
:101C6000EA6AD890E936EA364E0EE926010EEA22F3
:101C7000EECFDEFFEDCFDDFFDECFE9FFDDCFEAFF08
:101C8000EF50800B09E0DECFE9FFDDCFEAFFEF5038
:101C9000040B02E0010E386F010158AF07D0380E77
:101CA000566F020E576F5881020E596F020EE15C9B
:101CB00002E2E16AE552E16EE552E7CFD9FF120098
:101CC0000F0153A115D044C1E9FF45C1EAFFEF5010
:101CD00080080DE14EC1E9FF4FC1EAFFEF508408D3
:101CE00006E144C1E9FF45C1EAFF8C0EEF6E539156
:101CF000629A12006084629864820101010E656F2D
:101D0000000EE66EE66AE66EE66A750EE66EE66A56
:101D10004DEC15F0106E060EE15E10501200010140
:101D2000656B000EE66EE66AE66EE66A740EE66EB7
:101D3000E66A4DEC15F0106E060EE15E10506492EE
:101D4000609462A402D06294FCD71200D9CFE6FF5F
:101D5000E1CFD9FFE65201012D0E6F6FFD0E661522
:101D600053E17E0E6615E8407F0B040DF3CF44F17E
:101D7000F4CF45F1000E4427020E452344C146F13D
:101D800045C147F1467544C1E9FF45C1EAFFEF503F
:101D90003C0BE842E8420D0835E1DF6A080EDF5CE3
:101DA00023E244C1E9FF45C1EAFF020EE926000E25
:101DB000EA22EE50EFCFEAFFE96EEF50E66EDF5019
:101DC000EA6A300FE96E020EEA22E552E750EF6E42
:101DD00044C1E9FF45C1EAFF020EE926000EEA22EE
:101DE000EE2AEF22DF2ADAD744C1E9FF45C1EAFF34
:101DF000020EE926000EEA22300EEE6E020EED6EA5
:101E00000DD807D03AD805D0FD0E6615040801E1BB
:101E100059D8E552E552E7CFD9FF12000101546BC2
:101E2000706B736B746B686B556B4EC1E9FF4FC180
:101E3000EAFFEF9E4E754EC1E9FF4FC1EAFFEF9EEC
:101E40004E7546C1E9FF47C1EAFFEF9E586B596BDB
:101E50005A6B5D6B5E6B5F6B8FD8000EE66EE66A49
:101E6000E66EE66A030EE66EE66A4DEC15F0106E5D
:101E7000060EE15E1050C7EF0BF0020E0101555D3A
:101E800002E187EF0CF0556B68511AE146C1E9FF9A
:101E900047C1EAFFEE52080EEF6E46C1E9FF47C1A7
:101EA000EAFF020EE926000EEA22300EEE6E020E66
:101EB000ED6E46C1E9FF47C1EAFF8C0EEF6E1200DE
:101EC000686B1200D9CFE6FFE1CFD9FFE6524EC1D1
:101ED000E9FF4FC1EAFFEF50400B01E0010EDF6E5A
:101EE00001014E75080E405D0BE132C25CFF0F012F
:101EF0005C5103E00101100E02D00101040E406F9D
:101F0000550526E14EC1E9FF4FC1EAFF020EE92661
:101F1000000EEA22380EEE6E020EED6E99DC020E15
:101F20000101545D06E14EC1E9FF4FC1EAFF840E95
:101F30000DD0DF5006E14EC1E9FF4FC1EAFFC80EE8
:101F400005D04EC1E9FF4FC1EAFF880EEF6E0FD0FA
:101F50005DAF0CD06051611107E005D061C1FAFF9F
:101F600001016051F96EFADF01015D9F556BE55289
:101F7000E552E7CFD9FF120002013051600BE84271
:101F8000E842E842E842E842000901E0120031512B
:101F90000C0A50E00B0A3FE00C0A31E0010A22E093
:101FA0000B0A1EE0020A1CE0030A18E0080A10E00F
:101FB000010A0CE00F0A08E0030A01E01200010127
:101FC000588F080E406F1200A2EF0DF026EF0DF0B3
:101FD0000101410E566F010E576F0CD0FFEF0DF04F
:101FE0001BEF10F034510101566F576B420E56270C
:101FF000010E57235881010E596F588F12000101AD
:10200000588F02013451EA6A420FE96E010EEA224A
:1020100032C2EFFF1200000EE66EE66AE66EE66A76
:10202000020EE66EE66A4DEC15F0106E060EE15EED
:10203000105012001200D9CFE6FFE1CFD9FF050EF4
:10204000E1260201320510E130511F0B00090CE1BD
:102050000101588F030E0201315D04E10101010EFF
:10206000646F02D00101646B0201325101E011D1B1
:1020700030511F0B020801E00CD134510F0B000945
:1020800001E107D134510F0B020801E202D1200E09
:102090000101405D01E0FDD0588F020134BF16D030
:1020A00034510F0BE96EEA6AD890E936EA36480EE9
:1020B000E926010EEA22EECFDEFFEDCFDDFF34513F
:1020C0000F0BEA6A6C0FE96E010E15D034510F0B3D
:1020D000E96EEA6AD890E936EA364E0EE926010E34
:1020E000EA22EECFDEFFEDCFDDFF34510F0BEA6ABF
:1020F000690FE96E010EEA22020EEFCFDBFFD95025
:10210000020FE96EDACFEAFFEF50010B03E1000E98
:10211000DF9401D0DF8434BF0BD034510F0BE96E54
:10212000EA6AD890E936EA36480EE926010E0AD066
:1021300034510F0BE96EEA6AD890E936EA364E0E52
:10214000E926010EEA22DECFEEFFDDCFEDFF030E22
:10215000315D20E1DECFE9FFDDCFEAFFEF50800BFC
:1021600011E034BF07D034510F0BEA6A6C0FE96EEF
:10217000010E06D034510F0BEA6A690FE96E010EA9
:10218000EA22EF82840EDECFE9FFDDCFEAFFE850DE
:10219000EF127FD0DF74DECFE9FFDDCFEAFFEF5033
:1021A000800B1BE0DECFE9FFDDCFEAFFEF9EDECF45
:1021B000E9FFDDCFEAFFEF8C020EE66EE66ADECFC6
:1021C000E6FFDDCFE6FF050EE66EE66A4DEC15F0A4
:1021D000106E060EE15E105005D0DECFE9FFDDCFB8
:1021E000EAFFEF8CDF74D950020FE96EDACFEAFF15
:1021F000EF50020B07E1DECFE9FFDDCFEAFFEF5042
:10220000800B2BE0020134BF07D034510F0BEA6A78
:102210006C0FE96E010E06D034510F0BEA6A690F9C
:10222000E96E010EEA22EF923B0E106EDECFE9FF5F
:10223000DDCFEAFFE850EF16020EE66EE66ADECF6B
:10224000E6FFDDCFE6FF050EE66EE66A4DEC15F023
:10225000106E060EE15E105007D03B0EDECFE9FF98
:10226000DDCFEAFFE850EF16020134510F0B116A7F
:10227000530F106E0F0E1122030E10C0DBFF040E61
:1022800011C0DBFF030EDBCFE9FF040EDBCFEAFF5B
:10229000EF90050EE15C02E2E16AE552E16EE55283
:0622A000E7CFD9FF120098
:0A22A600020130511F0B010801E096
:1022B00012003051600BE842E842E842E842E8424E
:1022C000010801E01200345103E0340501E012007E
:1022D0003151220A33E0030A26E0010A15E0210AFF
:1022E0000DE0010A01E012000101F80E566F000E28
:1022F000576F080E596F5A6B588123D00101F80EA1
:10230000566F000E576F1DD036C25EF137C25FF1B7
:102310000101400E5B6F020E5C6F880E606F280E2D
:10232000616F5D8F12000101CA0E566F020E576F6A
:10233000070E596F5A6BC10E586F120032C2F3F07C
:102340000101588F12000201CA6B4B0ECB6FCC6B90
:10235000CD6BCE6BCF6B080ED06F0001E76B1A0E02
:10236000E66E010EE66E6CEC09F0E552E5521E0ECB
:10237000E66E020EE66E6CEC09F0E552E552400E98
:10238000E66E4A0EE66E020EE66EE66A020EE66E35
:10239000A3EC09F0106E050EE15E1050F3CFEFF0E4
:1023A000F4CFF0F00001F16BF26BE86B1200D9CFC3
:1023B000E6FFE1CFD9FFFD0EDBCF06F0FE0EDBCF4F
:1023C00007F0050E061801E1075002E0000E30D0BC
:1023D000FB0EDBCF10F0FC0EDBCF11F00001EF5154
:1023E000101816E1F051111813E1400EE66E4A0E76
:1023F000E66E020EE66EE66A020EE66EA3EC09F0E9
:10240000106E050EE15E1050F3CFEFF0F4CFF0F058
:10241000FB0EDBCF10F0FC0EDBCF11F00001F15111
:10242000101805E1F251111802E1E86BED6B010E95
:10243000E552E7CFD9FF1200D9CFE6FFE1CFD9FFB0
:102440000001E76BEF51F01102E1000E08D0EFC080
:10245000E9FFF0C0EAFFEF50800B01E0010E000938
:1024600045E1FC0EDBCF10F0EFC0E9FFF0C0EAFF62
:10247000EE52EF50D880105408E2EFC0E9FFF0C0F0
:10248000EAFFEE52FC0EEFCFDBFFE76BFC0EDB50FA
:10249000E75D19E2E751EA6A4A0FE96E020EEA22A5
:1024A000EF50E66EE751E76EFD0EDBCFE9FFFE0E63
:1024B000DBCFEAFFE750E926000EEA22E552E750BB
:1024C000EF6EE72BE3D7400EE66E4A0EE66E020E85
:1024D000E66EE66A020EE66EA3EC09F0106E050EDB
:1024E000E15E1050F3CFEFF0F4CFF0F00001E751D0
:1024F000E552E7CFD9FF1200D9CFE6FFE1CFD9FFF0
:102500000001E8510CE1FD0EDBCFE9F0FE0EDBCF60
:10251000EAF0FC0EDBCFEDF0010EEE6FE86FE55256
:10252000E7CFD9FF1200D9CFE6FFE1CFD9FF030EE5
:10253000E1260001E8512DE1DF6AFD0EDBCF06F058
:10254000FE0EDBCF07F0DE5206C0DEFF07C0DDFF68
:10255000DD52DF2ADF50106E116AFF0E101802E103
:1025600011500BE0010EDBCFE9FFDB2A020EDBCFBF
:10257000EAFF01E3DB2AEF50ECE1FD0EDBCFE9F0EF
:10258000FE0EDBCFEAF0DFCFEDF00001010EEE6FC3
:10259000E86F030EE15C02E2E16AE552E16EE552AA
:1025A000E7CFD9FF1200D9CFE6FFE1CFD9FF030E65
:1025B000E1260001E8512EE1DF6AFD0EDBCF06F0D7
:1025C000FE0EDBCF07F0DE5206C0DEFF07C0DDFFE8
:1025D000DD52DF2ADF50106E116AFF0E101802E183
:1025E00011500CE0010EDBCFF6FFDB2A020EDBCF31
:1025F000F7FF01E3DB2A0800F550EBE1FD0EDBCF2E
:10260000E9F0FE0EDBCFEAF0DFCFEDF00001EE6B7C
:10261000010EE86F030EE15C02E2E16AE552E16E51
:10262000E552E7CFD9FF1200D9CFE6FFE1CFD9FFBE
:10263000020EE1260001F151F21102E1000E08D074
:10264000F1C0E9FFF2C0EAFFEF50800B01E0010E9C
:10265000000901E084D0030EE85D01E1E86BE85178
:1026600001E17DD0020EE85D16E1E66A000EE66E3D
:10267000E66A010EE66E020EE66EA3EC09F0106E3D
:10268000050EE15E1050F3CFF1F0F4CFF2F000014F
:10269000030EE86F64D0E80562E1400E106E116A27
:1026A000ED51105C000E115803E2400EDF6E02D0B7
:1026B000EDC0DFFFDF50ED5DED6F8A0EEB6F020EB8
:1026C000EC6F010EDFCFDBFFEE5116E1010EDB50A8
:1026D00028E0E9C0F6FFEAC0F7FF0800F550EBC0BC
:1026E000E9FFECC0EAFFEF6EEB2B000EEC23E92BC9
:1026F000EA23010EDB06EAD7010EDB5012E0E9C047
:10270000E9FFEAC0EAFFEF50EBC0E9FFECC0EAFFE7
:10271000EF6EEB2B000EEC23E92BEA23010EDB0618
:10272000EBD70001ED5107E1400EDF5C02E1020E44
:1027300001D0030EE86FDFCFE6FF8A0EE66E020ED1
:10274000E66E010EE66E020EE66EA3EC09F0106E68
:10275000050EE15E1050F3CFF1F0F4CFF2F0020E6F
:10276000E15C02E2E16AE552E16EE552E7CFD9FFB2
:02277000120055
:0E277200DACFE4FFE652E552E5CFDAFF1100C0
:10278000D8CFE4FFE0CFE4FFE46EDACFE4FFE65217
:10279000E552E5CFDAFFE550E5CFE0FFE5CFD8FF22
:1027A0001000D9CFE6FFE1CFD9FF020EE1261ED8F7
:1027B000A6EC08F00001680E606F650E616F6C0E8C
:1027C000626F636F300E646F200E656F770E666FF9
:1027D0006F0E676F720E686F6C0E696F640E6A6FB2
:1027E000210E6B6F0C0EE06FBAD8E2D70F0EC1123C
:1027F00002D816EF08F0D9CFE6FFE1CFD9FFE652B5
:102800001FD8DF6ADF50106E116A400E105C000E98
:10281000115809E2DF50EA6A600FE96E000EEA2201
:10282000EF6ADF2AEFD70001E06BE16BE36BE46B4B
:10283000F00E8B169416E552E552E7CFD9FF120041
:10284000D9CFE6FFE1CFD9FFE6527F6A938A939E04
:10285000240EAC6E900EAB6E710EAF6E020EB06EAB
:10286000080EB86EAE50DF6EE552E552E7CFD9FFE5
:102870001200D9CFE6FFE1CFD9FFFE0EDB50AD6EDF
:10288000E552E7CFD9FF1200D9CFE6FFE1CFD9FF5C
:10289000040EE126D880000E02014055C20E4155BB
:1028A000010E4255000E43553CE340C2CAF241C2FC
:1028B000CBF242C2CCF243C2CDF2146A1B0E156EAB
:1028C000B70E166E176A14C004F015C005F0066E38
:1028D00017C007F0CAC209F0CBC20AF0CCC20BF095
:1028E000CDC20CF04BEC16F004C010F005C011F096
:1028F00006C012F007C013F01006000E115A125A4B
:10290000135A10C0DFFF010E11C0DBFF020E12C010
:10291000DBFF030E13C0DBFFDF50AF6E010EDB5099
:10292000B06E040EE15C02E2E16AE552E16EE5524E
:10293000E7CFD9FF1200D9CFE6FFE1CFD9FFE652AA
:10294000ABA205D0AB98AE50DF6EAB8802D0AE50D4
:10295000DF6EDF50E552E552E7CFD9FF120071D8A4
:10296000200E0101E76E4019E8AE02D0E73402D034
:10297000E750405D65E36450020B01E01200010185
:102980007F5115E1400EE66EA00EE66E000EE66E7B
:102990001CEC12F0E552E552E5520001E16FE850FF
:1029A000000805E20101010E7F6F0001E26B0101E9
:1029B0007F5115E0AC50020B12E00001E251EA6ACF
:1029C000A00FE96E000EEA22EF50E66E52DFE552EC
:1029D0000001E22BE151E25D02E101017F6B9E50BB
:1029E000200B18E03F0E0001E05D14E2A4DFE66E6C
:1029F0000001E051EA6A600FE96E000EEA22E5523A
:102A0000E750EF6EE02BE051EA6A600FE96E000ECE
:102A1000EA22EF6A0001E85111E10001E0510008EB
:102A20000DE2E0C0E6FF600EE66E000EE66E7CECA6
:102A300012F0E552E552E5520001E06B14EC13F0A0
:102A400012001200120012001200120053EF11F0D7
:102A50001200A3EF11F0010164051EE101016505FB
:102A60001BE1F1DF64920101656B0001100EE56F5F
:102A70000E0EE66FE507000EE65BE551E611FAE1A2
:102A80006484080EE56F070EE66FE507000EE65B4F
:102A9000E551E611FAE164941200D9CFE6FFE1CFE7
:102AA000D9FFFD0EDBCF06F0FE0EDBCF07F0050EE3
:102AB000061801E1075036E0E868061802E17F0ECB
:102AC00007182FE0030E061801E1075028E0020E58
:102AD000061801E1075021E0010E061801E1075038
:102AE0001AE0740E061801E1075013E0750E06187F
:102AF00001E107500CE0730E061801E1075005E0F4
:102B0000720E06180FE107500DD09EDF0BD09ADF32
:102B100009D099DF07D09DDF05D09ADF03D096DF7B
:0E2B200001D093DF010EE552E7CFD9FF12007E
:022B2E00120192
:102B3000000202000008D8040A000001010200019E
:102B400009024300020100C0320904000001020230
:102B500001000524001001042402020524060001DE
:102B60000524010001070581030A00010904010091
:102B7000020A000000070502024000000705820269
:102B80004000000403090434034D0069006300722F
:102B9000006F006300680069007000200054006549
:102BA00000630068006E006F006C006F00670079C2
:102BB00000200049006E0063002E003403430044EF
:102BC0000043002000520053002D00320033003239
:102BD00000200045006D0075006C00610074006904
:102BE000006F006E002000440065006D006F004023
:072BF0002B832B872BBB2B6D
:082BF8001E0EF66E100EF76EC2
:102C0000000EF86E01010900F5507A6F0900F550C9
:102C10007B6F03E17A6701D03DD00900F550756FF5
:102C20000900F550766F0900F550776F090009002B
:102C3000F550E96E0900F550EA6E09000900090037
:102C4000F550786F0900F550796F09000900F6CF4B
:102C50007CF1F7CF7DF1F8CF7EF175C1F6FF76C13B
:102C6000F7FF77C1F8FF0101785302E1795307E0DC
:102C70000900F550EE6E7807F8E27907F9D77CC1C4
:102C8000F6FF7DC1F7FF7EC1F8FF01017A07000E54
:062C90007B5BBFD71200C0
:0A2C9600036A026A016A006A200E58
:102CA000E76ED8900436053606360736003601360C
:102CB000023603360950005C0A5001580B50025886
:102CC0000C50035809E30950005E0A50015A0B509A
:0E2CD000025A0C50035A042AE72EE4D71200D1
:022CDE00FE0EE8
:102CE000E3CFE9FFFF0EE3CFEAFFE9CFF3FFEACF3F
:102CF000F4FFFB0EE35003E1FC0EE35009E0FB0E92
:102D0000E30602E2FC0EE306FD0EE350EE6EF1D7A1
:022D10001200AF
:0E2D1200000EF36E00EE00F0030E01D812006A
:102D2000EA6002D0EE6AFCD7F350E9601200EE6A66
:022D3000FCD7CE
:0E2D320011EE00F021EE00F0F86A0F9CFCECB0
:0E2D400015F003EC08F0D1EC13F0FBD71200F5
:020000040030CA
:0100000000FF
:0100010032CC
:0100020021DC
:010003001EDE
:0100050000FA
:010006008178
:0100080003F4
:01000900C036
:01000A0003F2
:01000B00E014
:01000C0003F0
:01000D0040B2
:00000001FF
